{
  "_format": "hh-sol-artifact-1",
  "contractName": "AgentMint",
  "sourceName": "contracts/AgentMint.sol",
  "abi": [
    {
      "inputs": [],
      "stateMutability": "nonpayable",
      "type": "constructor"
    },
    {
      "inputs": [
        {
          "internalType": "address",
          "name": "sender",
          "type": "address"
        },
        {
          "internalType": "uint256",
          "name": "tokenId",
          "type": "uint256"
        },
        {
          "internalType": "address",
          "name": "owner",
          "type": "address"
        }
      ],
      "name": "ERC721IncorrectOwner",
      "type": "error"
    },
    {
      "inputs": [
        {
          "internalType": "address",
          "name": "operator",
          "type": "address"
        },
        {
          "internalType": "uint256",
          "name": "tokenId",
          "type": "uint256"
        }
      ],
      "name": "ERC721InsufficientApproval",
      "type": "error"
    },
    {
      "inputs": [
        {
          "internalType": "address",
          "name": "approver",
          "type": "address"
        }
      ],
      "name": "ERC721InvalidApprover",
      "type": "error"
    },
    {
      "inputs": [
        {
          "internalType": "address",
          "name": "operator",
          "type": "address"
        }
      ],
      "name": "ERC721InvalidOperator",
      "type": "error"
    },
    {
      "inputs": [
        {
          "internalType": "address",
          "name": "owner",
          "type": "address"
        }
      ],
      "name": "ERC721InvalidOwner",
      "type": "error"
    },
    {
      "inputs": [
        {
          "internalType": "address",
          "name": "receiver",
          "type": "address"
        }
      ],
      "name": "ERC721InvalidReceiver",
      "type": "error"
    },
    {
      "inputs": [
        {
          "internalType": "address",
          "name": "sender",
          "type": "address"
        }
      ],
      "name": "ERC721InvalidSender",
      "type": "error"
    },
    {
      "inputs": [
        {
          "internalType": "uint256",
          "name": "tokenId",
          "type": "uint256"
        }
      ],
      "name": "ERC721NonexistentToken",
      "type": "error"
    },
    {
      "inputs": [
        {
          "internalType": "address",
          "name": "owner",
          "type": "address"
        }
      ],
      "name": "OwnableInvalidOwner",
      "type": "error"
    },
    {
      "inputs": [
        {
          "internalType": "address",
          "name": "account",
          "type": "address"
        }
      ],
      "name": "OwnableUnauthorizedAccount",
      "type": "error"
    },
    {
      "anonymous": false,
      "inputs": [
        {
          "indexed": true,
          "internalType": "uint256",
          "name": "tokenId",
          "type": "uint256"
        },
        {
          "indexed": true,
          "internalType": "address",
          "name": "creator",
          "type": "address"
        },
        {
          "indexed": true,
          "internalType": "address",
          "name": "owner",
          "type": "address"
        },
        {
          "indexed": false,
          "internalType": "string",
          "name": "tokenURI",
          "type": "string"
        },
        {
          "indexed": false,
          "internalType": "bytes32",
          "name": "personalityHash",
          "type": "bytes32"
        }
      ],
      "name": "AgentMinted",
      "type": "event"
    },
    {
      "anonymous": false,
      "inputs": [
        {
          "indexed": true,
          "internalType": "uint256",
          "name": "tokenId",
          "type": "uint256"
        },
        {
          "indexed": true,
          "internalType": "address",
          "name": "summoner",
          "type": "address"
        },
        {
          "indexed": false,
          "internalType": "uint256",
          "name": "sessionId",
          "type": "uint256"
        }
      ],
      "name": "AgentSummoned",
      "type": "event"
    },
    {
      "anonymous": false,
      "inputs": [
        {
          "indexed": true,
          "internalType": "address",
          "name": "owner",
          "type": "address"
        },
        {
          "indexed": true,
          "internalType": "address",
          "name": "approved",
          "type": "address"
        },
        {
          "indexed": true,
          "internalType": "uint256",
          "name": "tokenId",
          "type": "uint256"
        }
      ],
      "name": "Approval",
      "type": "event"
    },
    {
      "anonymous": false,
      "inputs": [
        {
          "indexed": true,
          "internalType": "address",
          "name": "owner",
          "type": "address"
        },
        {
          "indexed": true,
          "internalType": "address",
          "name": "operator",
          "type": "address"
        },
        {
          "indexed": false,
          "internalType": "bool",
          "name": "approved",
          "type": "bool"
        }
      ],
      "name": "ApprovalForAll",
      "type": "event"
    },
    {
      "anonymous": false,
      "inputs": [
        {
          "indexed": false,
          "internalType": "uint256",
          "name": "_fromTokenId",
          "type": "uint256"
        },
        {
          "indexed": false,
          "internalType": "uint256",
          "name": "_toTokenId",
          "type": "uint256"
        }
      ],
      "name": "BatchMetadataUpdate",
      "type": "event"
    },
    {
      "anonymous": false,
      "inputs": [
        {
          "indexed": false,
          "internalType": "uint256",
          "name": "_tokenId",
          "type": "uint256"
        }
      ],
      "name": "MetadataUpdate",
      "type": "event"
    },
    {
      "anonymous": false,
      "inputs": [
        {
          "indexed": true,
          "internalType": "address",
          "name": "previousOwner",
          "type": "address"
        },
        {
          "indexed": true,
          "internalType": "address",
          "name": "newOwner",
          "type": "address"
        }
      ],
      "name": "OwnershipTransferred",
      "type": "event"
    },
    {
      "anonymous": false,
      "inputs": [
        {
          "indexed": true,
          "internalType": "address",
          "name": "from",
          "type": "address"
        },
        {
          "indexed": true,
          "internalType": "address",
          "name": "to",
          "type": "address"
        },
        {
          "indexed": true,
          "internalType": "uint256",
          "name": "tokenId",
          "type": "uint256"
        }
      ],
      "name": "Transfer",
      "type": "event"
    },
    {
      "inputs": [],
      "name": "MINT_PRICE",
      "outputs": [
        {
          "internalType": "uint256",
          "name": "",
          "type": "uint256"
        }
      ],
      "stateMutability": "view",
      "type": "function"
    },
    {
      "inputs": [
        {
          "internalType": "address",
          "name": "to",
          "type": "address"
        },
        {
          "internalType": "uint256",
          "name": "tokenId",
          "type": "uint256"
        }
      ],
      "name": "approve",
      "outputs": [],
      "stateMutability": "nonpayable",
      "type": "function"
    },
    {
      "inputs": [
        {
          "internalType": "address",
          "name": "owner",
          "type": "address"
        }
      ],
      "name": "balanceOf",
      "outputs": [
        {
          "internalType": "uint256",
          "name": "",
          "type": "uint256"
        }
      ],
      "stateMutability": "view",
      "type": "function"
    },
    {
      "inputs": [
        {
          "internalType": "uint256",
          "name": "",
          "type": "uint256"
        }
      ],
      "name": "creatorOf",
      "outputs": [
        {
          "internalType": "address",
          "name": "",
          "type": "address"
        }
      ],
      "stateMutability": "view",
      "type": "function"
    },
    {
      "inputs": [
        {
          "internalType": "uint256",
          "name": "tokenId",
          "type": "uint256"
        }
      ],
      "name": "getAgentData",
      "outputs": [
        {
          "internalType": "address",
          "name": "creator",
          "type": "address"
        },
        {
          "internalType": "address",
          "name": "ownerAddr",
          "type": "address"
        },
        {
          "internalType": "string",
          "name": "tokenURI_",
          "type": "string"
        },
        {
          "internalType": "bytes32",
          "name": "personalityHash",
          "type": "bytes32"
        },
        {
          "internalType": "uint256",
          "name": "summonCount",
          "type": "uint256"
        }
      ],
      "stateMutability": "view",
      "type": "function"
    },
    {
      "inputs": [
        {
          "internalType": "uint256",
          "name": "tokenId",
          "type": "uint256"
        }
      ],
      "name": "getApproved",
      "outputs": [
        {
          "internalType": "address",
          "name": "",
          "type": "address"
        }
      ],
      "stateMutability": "view",
      "type": "function"
    },
    {
      "inputs": [
        {
          "internalType": "address",
          "name": "owner",
          "type": "address"
        },
        {
          "internalType": "address",
          "name": "operator",
          "type": "address"
        }
      ],
      "name": "isApprovedForAll",
      "outputs": [
        {
          "internalType": "bool",
          "name": "",
          "type": "bool"
        }
      ],
      "stateMutability": "view",
      "type": "function"
    },
    {
      "inputs": [
        {
          "internalType": "string",
          "name": "tokenURI_",
          "type": "string"
        },
        {
          "internalType": "bytes32",
          "name": "personalityHash",
          "type": "bytes32"
        }
      ],
      "name": "mint",
      "outputs": [
        {
          "internalType": "uint256",
          "name": "",
          "type": "uint256"
        }
      ],
      "stateMutability": "payable",
      "type": "function"
    },
    {
      "inputs": [],
      "name": "name",
      "outputs": [
        {
          "internalType": "string",
          "name": "",
          "type": "string"
        }
      ],
      "stateMutability": "view",
      "type": "function"
    },
    {
      "inputs": [],
      "name": "owner",
      "outputs": [
        {
          "internalType": "address",
          "name": "",
          "type": "address"
        }
      ],
      "stateMutability": "view",
      "type": "function"
    },
    {
      "inputs": [
        {
          "internalType": "uint256",
          "name": "tokenId",
          "type": "uint256"
        }
      ],
      "name": "ownerOf",
      "outputs": [
        {
          "internalType": "address",
          "name": "",
          "type": "address"
        }
      ],
      "stateMutability": "view",
      "type": "function"
    },
    {
      "inputs": [
        {
          "internalType": "uint256",
          "name": "",
          "type": "uint256"
        }
      ],
      "name": "personalityHashOf",
      "outputs": [
        {
          "internalType": "bytes32",
          "name": "",
          "type": "bytes32"
        }
      ],
      "stateMutability": "view",
      "type": "function"
    },
    {
      "inputs": [
        {
          "internalType": "uint256",
          "name": "tokenId",
          "type": "uint256"
        }
      ],
      "name": "recordSummon",
      "outputs": [],
      "stateMutability": "nonpayable",
      "type": "function"
    },
    {
      "inputs": [],
      "name": "renounceOwnership",
      "outputs": [],
      "stateMutability": "nonpayable",
      "type": "function"
    },
    {
      "inputs": [
        {
          "internalType": "address",
          "name": "from",
          "type": "address"
        },
        {
          "internalType": "address",
          "name": "to",
          "type": "address"
        },
        {
          "internalType": "uint256",
          "name": "tokenId",
          "type": "uint256"
        }
      ],
      "name": "safeTransferFrom",
      "outputs": [],
      "stateMutability": "nonpayable",
      "type": "function"
    },
    {
      "inputs": [
        {
          "internalType": "address",
          "name": "from",
          "type": "address"
        },
        {
          "internalType": "address",
          "name": "to",
          "type": "address"
        },
        {
          "internalType": "uint256",
          "name": "tokenId",
          "type": "uint256"
        },
        {
          "internalType": "bytes",
          "name": "data",
          "type": "bytes"
        }
      ],
      "name": "safeTransferFrom",
      "outputs": [],
      "stateMutability": "nonpayable",
      "type": "function"
    },
    {
      "inputs": [
        {
          "internalType": "address",
          "name": "operator",
          "type": "address"
        },
        {
          "internalType": "bool",
          "name": "approved",
          "type": "bool"
        }
      ],
      "name": "setApprovalForAll",
      "outputs": [],
      "stateMutability": "nonpayable",
      "type": "function"
    },
    {
      "inputs": [
        {
          "internalType": "uint256",
          "name": "",
          "type": "uint256"
        }
      ],
      "name": "summonCountOf",
      "outputs": [
        {
          "internalType": "uint256",
          "name": "",
          "type": "uint256"
        }
      ],
      "stateMutability": "view",
      "type": "function"
    },
    {
      "inputs": [
        {
          "internalType": "bytes4",
          "name": "interfaceId",
          "type": "bytes4"
        }
      ],
      "name": "supportsInterface",
      "outputs": [
        {
          "internalType": "bool",
          "name": "",
          "type": "bool"
        }
      ],
      "stateMutability": "view",
      "type": "function"
    },
    {
      "inputs": [],
      "name": "symbol",
      "outputs": [
        {
          "internalType": "string",
          "name": "",
          "type": "string"
        }
      ],
      "stateMutability": "view",
      "type": "function"
    },
    {
      "inputs": [
        {
          "internalType": "uint256",
          "name": "tokenId",
          "type": "uint256"
        }
      ],
      "name": "tokenURI",
      "outputs": [
        {
          "internalType": "string",
          "name": "",
          "type": "string"
        }
      ],
      "stateMutability": "view",
      "type": "function"
    },
    {
      "inputs": [
        {
          "internalType": "address",
          "name": "ownerAddr",
          "type": "address"
        }
      ],
      "name": "tokensOfOwner",
      "outputs": [
        {
          "internalType": "uint256[]",
          "name": "",
          "type": "uint256[]"
        }
      ],
      "stateMutability": "view",
      "type": "function"
    },
    {
      "inputs": [],
      "name": "totalMinted",
      "outputs": [
        {
          "internalType": "uint256",
          "name": "",
          "type": "uint256"
        }
      ],
      "stateMutability": "view",
      "type": "function"
    },
    {
      "inputs": [
        {
          "internalType": "address",
          "name": "from",
          "type": "address"
        },
        {
          "internalType": "address",
          "name": "to",
          "type": "address"
        },
        {
          "internalType": "uint256",
          "name": "tokenId",
          "type": "uint256"
        }
      ],
      "name": "transferFrom",
      "outputs": [],
      "stateMutability": "nonpayable",
      "type": "function"
    },
    {
      "inputs": [
        {
          "internalType": "address",
          "name": "newOwner",
          "type": "address"
        }
      ],
      "name": "transferOwnership",
      "outputs": [],
      "stateMutability": "nonpayable",
      "type": "function"
    },
    {
      "inputs": [],
      "name": "withdraw",
      "outputs": [],
      "stateMutability": "nonpayable",
      "type": "function"
    },
    {
      "stateMutability": "payable",
      "type": "receive"
    }
  ],
  "bytecode": "0x6080604052600160085534801562000015575f80fd5b50336040518060400160405280600e81526020016d1059d95b9d135a5b9d081a53919560921b815250604051806040016040528060098152602001681051d153951352539560ba1b815250815f9081620000709190620001b1565b5060016200007f8282620001b1565b5050506001600160a01b038116620000b057604051631e4fbdf760e01b81525f600482015260240160405180910390fd5b620000bb81620000c2565b506200027d565b600780546001600160a01b038381166001600160a01b0319831681179093556040519116919082907f8be0079c531659141344cd1fd0a4f28419497f9722a3daafe3b4186f6b6457e0905f90a35050565b634e487b7160e01b5f52604160045260245ffd5b600181811c908216806200013c57607f821691505b6020821081036200015b57634e487b7160e01b5f52602260045260245ffd5b50919050565b601f821115620001ac57805f5260205f20601f840160051c81016020851015620001885750805b601f840160051c820191505b81811015620001a9575f815560010162000194565b50505b505050565b81516001600160401b03811115620001cd57620001cd62000113565b620001e581620001de845462000127565b8462000161565b602080601f8311600181146200021b575f8415620002035750858301515b5f19600386901b1c1916600185901b17855562000275565b5f85815260208120601f198616915b828110156200024b578886015182559484019460019091019084016200022a565b50858210156200026957878501515f19600388901b60f8161c191681555b505060018460011b0185555b505050505050565b611b55806200028b5f395ff3fe60806040526004361061017e575f3560e01c80638da5cb5b116100cd578063b88d4fde11610087578063dac43ec811610062578063dac43ec81461047f578063e205918d146104aa578063e985e9c5146104bd578063f2fde38b146104dc575f80fd5b8063b88d4fde14610427578063c002d23d14610446578063c87b56dd14610460575f80fd5b80638da5cb5b1461036757806395d89b4114610384578063a22cb46514610398578063a2309ff8146103b7578063aa05a460146103cc578063af87e086146103f7575f80fd5b80633ccfd60b116101385780636352211e116101135780636352211e146102db57806370a08231146102fa578063715018a6146103275780638462151c1461033b575f80fd5b80633ccfd60b1461027457806342842e0e14610288578063589a1743146102a7575f80fd5b806301ffc9a71461018957806306fdde03146101bd578063081812fc146101de578063095ea7b314610215578063228856851461023657806323b872dd14610255575f80fd5b3661018557005b5f80fd5b348015610194575f80fd5b506101a86101a3366004611589565b6104fb565b60405190151581526020015b60405180910390f35b3480156101c8575f80fd5b506101d1610525565b6040516101b491906115f1565b3480156101e9575f80fd5b506101fd6101f8366004611603565b6105b4565b6040516001600160a01b0390911681526020016101b4565b348015610220575f80fd5b5061023461022f366004611635565b6105db565b005b348015610241575f80fd5b50610234610250366004611603565b6105ea565b348015610260575f80fd5b5061023461026f36600461165d565b6106be565b34801561027f575f80fd5b50610234610747565b348015610293575f80fd5b506102346102a236600461165d565b610845565b3480156102b2575f80fd5b506101fd6102c1366004611603565b600a6020525f90815260409020546001600160a01b031681565b3480156102e6575f80fd5b506101fd6102f5366004611603565b610864565b348015610305575f80fd5b50610319610314366004611696565b61086e565b6040519081526020016101b4565b348015610332575f80fd5b506102346108b3565b348015610346575f80fd5b5061035a610355366004611696565b6108c6565b6040516101b491906116af565b348015610372575f80fd5b506007546001600160a01b03166101fd565b34801561038f575f80fd5b506101d1610986565b3480156103a3575f80fd5b506102346103b23660046116f2565b610995565b3480156103c2575f80fd5b5061031960095481565b3480156103d7575f80fd5b506103196103e6366004611603565b600c6020525f908152604090205481565b348015610402575f80fd5b50610416610411366004611603565b6109a0565b6040516101b495949392919061172b565b348015610432575f80fd5b506102346104413660046117f1565b610a6f565b348015610451575f80fd5b5061031966038d7ea4c6800081565b34801561046b575f80fd5b506101d161047a366004611603565b610a87565b34801561048a575f80fd5b50610319610499366004611603565b600b6020525f908152604090205481565b6103196104b8366004611868565b610b08565b3480156104c8575f80fd5b506101a86104d73660046118bd565b610c27565b3480156104e7575f80fd5b506102346104f6366004611696565b610c54565b5f6001600160e01b03198216632483248360e11b148061051f575061051f82610c91565b92915050565b60605f8054610533906118ee565b80601f016020809104026020016040519081016040528092919081815260200182805461055f906118ee565b80156105aa5780601f10610581576101008083540402835291602001916105aa565b820191905f5260205f20905b81548152906001019060200180831161058d57829003601f168201915b5050505050905090565b5f6105be82610ce0565b505f828152600460205260409020546001600160a01b031661051f565b6105e6828233610d18565b5050565b5f818152600260205260409020546001600160a01b03166106525760405162461bcd60e51b815260206004820152601c60248201527f4167656e744d696e743a206e6f6e6578697374656e7420746f6b656e0000000060448201526064015b60405180910390fd5b5f818152600c6020526040812080546001929061067090849061193a565b90915550505f818152600c6020908152604091829020549151918252339183917faa45faabe9bcc4f535050c932d1a5578c0698919d3b068add1387a0a2599cd1c910160405180910390a350565b6001600160a01b0382166106e757604051633250574960e11b81525f6004820152602401610649565b5f6106f3838333610d25565b9050836001600160a01b0316816001600160a01b031614610741576040516364283d7b60e01b81526001600160a01b0380861660048301526024820184905282166044820152606401610649565b50505050565b61074f610e17565b47806107955760405162461bcd60e51b81526020600482015260156024820152744167656e744d696e743a206e6f2062616c616e636560581b6044820152606401610649565b5f6107a86007546001600160a01b031690565b6001600160a01b0316826040515f6040518083038185875af1925050503d805f81146107ef576040519150601f19603f3d011682016040523d82523d5f602084013e6107f4565b606091505b50509050806105e65760405162461bcd60e51b815260206004820152601a60248201527f4167656e744d696e743a207769746864726177206661696c65640000000000006044820152606401610649565b61085f83838360405180602001604052805f815250610a6f565b505050565b5f61051f82610ce0565b5f6001600160a01b038216610898576040516322718ad960e21b81525f6004820152602401610649565b506001600160a01b03165f9081526003602052604090205490565b6108bb610e17565b6108c45f610e44565b565b60605f6108d28361086e565b90505f8167ffffffffffffffff8111156108ee576108ee61176a565b604051908082528060200260200182016040528015610917578160200160208202803683370190505b5090505f60015b60085481101561097c57856001600160a01b031661093b82610864565b6001600160a01b031603610974578083836109558161194d565b94508151811061096757610967611965565b6020026020010181815250505b60010161091e565b5090949350505050565b606060018054610533906118ee565b6105e6338383610e95565b5f8060608180806109c5875f908152600260205260409020546001600160a01b031690565b6001600160a01b031603610a1b5760405162461bcd60e51b815260206004820152601c60248201527f4167656e744d696e743a206e6f6e6578697374656e7420746f6b656e000000006044820152606401610649565b5f868152600a60205260409020546001600160a01b0316610a3b87610864565b610a4488610a87565b5f988952600b60209081526040808b2054600c90925290992054929991989097509550909350915050565b610a7a8484846106be565b6107413385858585610f5c565b6060610a9282610ce0565b505f610aa860408051602081019091525f815290565b90505f610ab484611084565b905081515f03610ac5579392505050565b805115610af7578181604051602001610adf929190611979565b60405160208183030381529060405292505050919050565b610b0084611123565b949350505050565b5f66038d7ea4c68000341015610b6b5760405162461bcd60e51b815260206004820152602260248201527f4167656e744d696e743a20696e73756666696369656e74206d696e7420707269604482015261636560f01b6064820152608401610649565b600880545f9182610b7b8361194d565b919050559050610b8b3382611194565b610b9581856111f5565b5f818152600a6020908152604080832080546001600160a01b03191633179055600b90915281208490556009805491610bcd8361194d565b9190505550336001600160a01b0316336001600160a01b0316827f1dde4bd0563b4bc3d964d7e1ddf8aafd123739f03c5b18e979378fc30f5f97078787604051610c189291906119a7565b60405180910390a49392505050565b6001600160a01b039182165f90815260056020908152604080832093909416825291909152205460ff1690565b610c5c610e17565b6001600160a01b038116610c8557604051631e4fbdf760e01b81525f6004820152602401610649565b610c8e81610e44565b50565b5f6001600160e01b031982166380ac58cd60e01b1480610cc157506001600160e01b03198216635b5e139f60e01b145b8061051f57506301ffc9a760e01b6001600160e01b031983161461051f565b5f818152600260205260408120546001600160a01b03168061051f57604051637e27328960e01b815260048101849052602401610649565b61085f8383836001611244565b5f828152600260205260408120546001600160a01b0390811690831615610d5157610d51818486611348565b6001600160a01b03811615610d8b57610d6c5f855f80611244565b6001600160a01b0381165f90815260036020526040902080545f190190555b6001600160a01b03851615610db9576001600160a01b0385165f908152600360205260409020805460010190555b5f8481526002602052604080822080546001600160a01b0319166001600160a01b0389811691821790925591518793918516917fddf252ad1be2c89b69c2b068fc378daa952ba7f163c4a11628f55a4df523b3ef91a4949350505050565b6007546001600160a01b031633146108c45760405163118cdaa760e01b8152336004820152602401610649565b600780546001600160a01b038381166001600160a01b0319831681179093556040519116919082907f8be0079c531659141344cd1fd0a4f28419497f9722a3daafe3b4186f6b6457e0905f90a35050565b6001600160a01b038316610ebe5760405163a9fbf51f60e01b81525f6004820152602401610649565b6001600160a01b038216610ef057604051630b61174360e31b81526001600160a01b0383166004820152602401610649565b6001600160a01b038381165f81815260056020908152604080832094871680845294825291829020805460ff191686151590811790915591519182527f17307eab39ab6107e8899845ad3d59bd9653f200f220920489ca2b5937696c31910160405180910390a3505050565b6001600160a01b0383163b1561107d57604051630a85bd0160e11b81526001600160a01b0384169063150b7a0290610f9e9088908890879087906004016119c8565b6020604051808303815f875af1925050508015610fd8575060408051601f3d908101601f19168201909252610fd591810190611a04565b60015b61103f573d808015611005576040519150601f19603f3d011682016040523d82523d5f602084013e61100a565b606091505b5080515f0361103757604051633250574960e11b81526001600160a01b0385166004820152602401610649565b805160208201fd5b6001600160e01b03198116630a85bd0160e11b1461107b57604051633250574960e11b81526001600160a01b0385166004820152602401610649565b505b5050505050565b5f8181526006602052604090208054606091906110a0906118ee565b80601f01602080910402602001604051908101604052809291908181526020018280546110cc906118ee565b80156111175780601f106110ee57610100808354040283529160200191611117565b820191905f5260205f20905b8154815290600101906020018083116110fa57829003601f168201915b50505050509050919050565b606061112e82610ce0565b505f61114460408051602081019091525f815290565b90505f8151116111625760405180602001604052805f81525061118d565b8061116c846113ac565b60405160200161117d929190611979565b6040516020818303038152906040525b9392505050565b6001600160a01b0382166111bd57604051633250574960e11b81525f6004820152602401610649565b5f6111c983835f610d25565b90506001600160a01b0381161561085f576040516339e3563760e11b81525f6004820152602401610649565b5f82815260066020526040902061120c8282611a63565b506040518281527ff8e1a15aba9398e019f0b49df1a4fde98ee17ae345cb5f6b5e2c27f5033e8ce79060200160405180910390a15050565b808061125857506001600160a01b03821615155b15611319575f61126784610ce0565b90506001600160a01b038316158015906112935750826001600160a01b0316816001600160a01b031614155b80156112a657506112a48184610c27565b155b156112cf5760405163a9fbf51f60e01b81526001600160a01b0384166004820152602401610649565b81156113175783856001600160a01b0316826001600160a01b03167f8c5be1e5ebec7d5bd14f71427d1e84f3dd0314c0f7b2291e5b200ac8c7c3b92560405160405180910390a45b505b50505f90815260046020526040902080546001600160a01b0319166001600160a01b0392909216919091179055565b61135383838361143c565b61085f576001600160a01b03831661138157604051637e27328960e01b815260048101829052602401610649565b60405163177e802f60e01b81526001600160a01b038316600482015260248101829052604401610649565b60605f6113b88361149d565b60010190505f8167ffffffffffffffff8111156113d7576113d761176a565b6040519080825280601f01601f191660200182016040528015611401576020820181803683370190505b5090508181016020015b5f19016f181899199a1a9b1b9c1cb0b131b232b360811b600a86061a8153600a850494508461140b57509392505050565b5f6001600160a01b03831615801590610b005750826001600160a01b0316846001600160a01b0316148061147557506114758484610c27565b80610b005750505f908152600460205260409020546001600160a01b03908116911614919050565b5f8072184f03e93ff9f4daa797ed6e38ed64bf6a1f0160401b83106114db5772184f03e93ff9f4daa797ed6e38ed64bf6a1f0160401b830492506040015b6d04ee2d6d415b85acef81000000008310611507576d04ee2d6d415b85acef8100000000830492506020015b662386f26fc10000831061152557662386f26fc10000830492506010015b6305f5e100831061153d576305f5e100830492506008015b612710831061155157612710830492506004015b60648310611563576064830492506002015b600a831061051f5760010192915050565b6001600160e01b031981168114610c8e575f80fd5b5f60208284031215611599575f80fd5b813561118d81611574565b5f5b838110156115be5781810151838201526020016115a6565b50505f910152565b5f81518084526115dd8160208601602086016115a4565b601f01601f19169290920160200192915050565b602081525f61118d60208301846115c6565b5f60208284031215611613575f80fd5b5035919050565b80356001600160a01b0381168114611630575f80fd5b919050565b5f8060408385031215611646575f80fd5b61164f8361161a565b946020939093013593505050565b5f805f6060848603121561166f575f80fd5b6116788461161a565b92506116866020850161161a565b9150604084013590509250925092565b5f602082840312156116a6575f80fd5b61118d8261161a565b602080825282518282018190525f9190848201906040850190845b818110156116e6578351835292840192918401916001016116ca565b50909695505050505050565b5f8060408385031215611703575f80fd5b61170c8361161a565b915060208301358015158114611720575f80fd5b809150509250929050565b6001600160a01b0386811682528516602082015260a0604082018190525f90611756908301866115c6565b606083019490945250608001529392505050565b634e487b7160e01b5f52604160045260245ffd5b5f67ffffffffffffffff808411156117985761179861176a565b604051601f8501601f19908116603f011681019082821181831017156117c0576117c061176a565b816040528093508581528686860111156117d8575f80fd5b858560208301375f602087830101525050509392505050565b5f805f8060808587031215611804575f80fd5b61180d8561161a565b935061181b6020860161161a565b925060408501359150606085013567ffffffffffffffff81111561183d575f80fd5b8501601f8101871361184d575f80fd5b61185c8782356020840161177e565b91505092959194509250565b5f8060408385031215611879575f80fd5b823567ffffffffffffffff81111561188f575f80fd5b8301601f8101851361189f575f80fd5b6118ae8582356020840161177e565b95602094909401359450505050565b5f80604083850312156118ce575f80fd5b6118d78361161a565b91506118e56020840161161a565b90509250929050565b600181811c9082168061190257607f821691505b60208210810361192057634e487b7160e01b5f52602260045260245ffd5b50919050565b634e487b7160e01b5f52601160045260245ffd5b8082018082111561051f5761051f611926565b5f6001820161195e5761195e611926565b5060010190565b634e487b7160e01b5f52603260045260245ffd5b5f835161198a8184602088016115a4565b83519083019061199e8183602088016115a4565b01949350505050565b604081525f6119b960408301856115c6565b90508260208301529392505050565b6001600160a01b03858116825284166020820152604081018390526080606082018190525f906119fa908301846115c6565b9695505050505050565b5f60208284031215611a14575f80fd5b815161118d81611574565b601f82111561085f57805f5260205f20601f840160051c81016020851015611a445750805b601f840160051c820191505b8181101561107d575f8155600101611a50565b815167ffffffffffffffff811115611a7d57611a7d61176a565b611a9181611a8b84546118ee565b84611a1f565b602080601f831160018114611ac4575f8415611aad5750858301515b5f19600386901b1c1916600185901b17855561107b565b5f85815260208120601f198616915b82811015611af257888601518255948401946001909101908401611ad3565b5085821015611b0f57878501515f19600388901b60f8161c191681555b5050505050600190811b0190555056fea26469706673582212200da30c64e9ce06f76650fd5038d570bb97b5b909aae64c86701d18c89b62299064736f6c63430008180033",
  "linkReferences": {},
  "deployedLinkReferences": {}
}