{
  "_format": "hh-sol-artifact-1",
  "contractName": "AgentMint",
  "sourceName": "contracts/AgentMint.sol",
  "abi": [
    {
      "inputs": [],
      "stateMutability": "nonpayable",
      "type": "constructor"
    },
    {
      "inputs": [
        {
          "internalType": "address",
          "name": "sender",
          "type": "address"
        },
        {
          "internalType": "uint256",
          "name": "tokenId",
          "type": "uint256"
        },
        {
          "internalType": "address",
          "name": "owner",
          "type": "address"
        }
      ],
      "name": "ERC721IncorrectOwner",
      "type": "error"
    },
    {
      "inputs": [
        {
          "internalType": "address",
          "name": "operator",
          "type": "address"
        },
        {
          "internalType": "uint256",
          "name": "tokenId",
          "type": "uint256"
        }
      ],
      "name": "ERC721InsufficientApproval",
      "type": "error"
    },
    {
      "inputs": [
        {
          "internalType": "address",
          "name": "approver",
          "type": "address"
        }
      ],
      "name": "ERC721InvalidApprover",
      "type": "error"
    },
    {
      "inputs": [
        {
          "internalType": "address",
          "name": "operator",
          "type": "address"
        }
      ],
      "name": "ERC721InvalidOperator",
      "type": "error"
    },
    {
      "inputs": [
        {
          "internalType": "address",
          "name": "owner",
          "type": "address"
        }
      ],
      "name": "ERC721InvalidOwner",
      "type": "error"
    },
    {
      "inputs": [
        {
          "internalType": "address",
          "name": "receiver",
          "type": "address"
        }
      ],
      "name": "ERC721InvalidReceiver",
      "type": "error"
    },
    {
      "inputs": [
        {
          "internalType": "address",
          "name": "sender",
          "type": "address"
        }
      ],
      "name": "ERC721InvalidSender",
      "type": "error"
    },
    {
      "inputs": [
        {
          "internalType": "uint256",
          "name": "tokenId",
          "type": "uint256"
        }
      ],
      "name": "ERC721NonexistentToken",
      "type": "error"
    },
    {
      "inputs": [
        {
          "internalType": "address",
          "name": "owner",
          "type": "address"
        }
      ],
      "name": "OwnableInvalidOwner",
      "type": "error"
    },
    {
      "inputs": [
        {
          "internalType": "address",
          "name": "account",
          "type": "address"
        }
      ],
      "name": "OwnableUnauthorizedAccount",
      "type": "error"
    },
    {
      "anonymous": false,
      "inputs": [
        {
          "indexed": true,
          "internalType": "uint256",
          "name": "tokenId",
          "type": "uint256"
        },
        {
          "indexed": false,
          "internalType": "uint256",
          "name": "newLevel",
          "type": "uint256"
        },
        {
          "indexed": false,
          "internalType": "string",
          "name": "milestoneName",
          "type": "string"
        }
      ],
      "name": "AgentEvolved",
      "type": "event"
    },
    {
      "anonymous": false,
      "inputs": [
        {
          "indexed": true,
          "internalType": "uint256",
          "name": "tokenId",
          "type": "uint256"
        },
        {
          "indexed": true,
          "internalType": "address",
          "name": "creator",
          "type": "address"
        },
        {
          "indexed": true,
          "internalType": "address",
          "name": "owner",
          "type": "address"
        },
        {
          "indexed": false,
          "internalType": "string",
          "name": "tokenURI",
          "type": "string"
        },
        {
          "indexed": false,
          "internalType": "bytes32",
          "name": "personalityHash",
          "type": "bytes32"
        }
      ],
      "name": "AgentMinted",
      "type": "event"
    },
    {
      "anonymous": false,
      "inputs": [
        {
          "indexed": true,
          "internalType": "uint256",
          "name": "tokenId",
          "type": "uint256"
        },
        {
          "indexed": true,
          "internalType": "address",
          "name": "summoner",
          "type": "address"
        },
        {
          "indexed": false,
          "internalType": "uint256",
          "name": "sessionId",
          "type": "uint256"
        },
        {
          "indexed": false,
          "internalType": "uint256",
          "name": "newLevel",
          "type": "uint256"
        },
        {
          "indexed": false,
          "internalType": "string",
          "name": "milestoneName",
          "type": "string"
        }
      ],
      "name": "AgentSummoned",
      "type": "event"
    },
    {
      "anonymous": false,
      "inputs": [
        {
          "indexed": true,
          "internalType": "uint256",
          "name": "tokenId",
          "type": "uint256"
        },
        {
          "indexed": true,
          "internalType": "address",
          "name": "voter",
          "type": "address"
        },
        {
          "indexed": false,
          "internalType": "bool",
          "name": "positive",
          "type": "bool"
        },
        {
          "indexed": false,
          "internalType": "int256",
          "name": "newScore",
          "type": "int256"
        }
      ],
      "name": "AgentVoted",
      "type": "event"
    },
    {
      "anonymous": false,
      "inputs": [
        {
          "indexed": true,
          "internalType": "address",
          "name": "owner",
          "type": "address"
        },
        {
          "indexed": true,
          "internalType": "address",
          "name": "approved",
          "type": "address"
        },
        {
          "indexed": true,
          "internalType": "uint256",
          "name": "tokenId",
          "type": "uint256"
        }
      ],
      "name": "Approval",
      "type": "event"
    },
    {
      "anonymous": false,
      "inputs": [
        {
          "indexed": true,
          "internalType": "address",
          "name": "owner",
          "type": "address"
        },
        {
          "indexed": true,
          "internalType": "address",
          "name": "operator",
          "type": "address"
        },
        {
          "indexed": false,
          "internalType": "bool",
          "name": "approved",
          "type": "bool"
        }
      ],
      "name": "ApprovalForAll",
      "type": "event"
    },
    {
      "anonymous": false,
      "inputs": [
        {
          "indexed": false,
          "internalType": "uint256",
          "name": "_fromTokenId",
          "type": "uint256"
        },
        {
          "indexed": false,
          "internalType": "uint256",
          "name": "_toTokenId",
          "type": "uint256"
        }
      ],
      "name": "BatchMetadataUpdate",
      "type": "event"
    },
    {
      "anonymous": false,
      "inputs": [
        {
          "indexed": false,
          "internalType": "uint256",
          "name": "_tokenId",
          "type": "uint256"
        }
      ],
      "name": "MetadataUpdate",
      "type": "event"
    },
    {
      "anonymous": false,
      "inputs": [
        {
          "indexed": true,
          "internalType": "address",
          "name": "previousOwner",
          "type": "address"
        },
        {
          "indexed": true,
          "internalType": "address",
          "name": "newOwner",
          "type": "address"
        }
      ],
      "name": "OwnershipTransferred",
      "type": "event"
    },
    {
      "anonymous": false,
      "inputs": [
        {
          "indexed": true,
          "internalType": "address",
          "name": "from",
          "type": "address"
        },
        {
          "indexed": true,
          "internalType": "address",
          "name": "to",
          "type": "address"
        },
        {
          "indexed": true,
          "internalType": "uint256",
          "name": "tokenId",
          "type": "uint256"
        }
      ],
      "name": "Transfer",
      "type": "event"
    },
    {
      "inputs": [],
      "name": "MINT_PRICE",
      "outputs": [
        {
          "internalType": "uint256",
          "name": "",
          "type": "uint256"
        }
      ],
      "stateMutability": "view",
      "type": "function"
    },
    {
      "inputs": [],
      "name": "MS_ANCIENT",
      "outputs": [
        {
          "internalType": "uint256",
          "name": "",
          "type": "uint256"
        }
      ],
      "stateMutability": "view",
      "type": "function"
    },
    {
      "inputs": [],
      "name": "MS_CURIOUS",
      "outputs": [
        {
          "internalType": "uint256",
          "name": "",
          "type": "uint256"
        }
      ],
      "stateMutability": "view",
      "type": "function"
    },
    {
      "inputs": [],
      "name": "MS_INITIATE",
      "outputs": [
        {
          "internalType": "uint256",
          "name": "",
          "type": "uint256"
        }
      ],
      "stateMutability": "view",
      "type": "function"
    },
    {
      "inputs": [],
      "name": "MS_MYTHIC",
      "outputs": [
        {
          "internalType": "uint256",
          "name": "",
          "type": "uint256"
        }
      ],
      "stateMutability": "view",
      "type": "function"
    },
    {
      "inputs": [],
      "name": "MS_WISE",
      "outputs": [
        {
          "internalType": "uint256",
          "name": "",
          "type": "uint256"
        }
      ],
      "stateMutability": "view",
      "type": "function"
    },
    {
      "inputs": [
        {
          "internalType": "address",
          "name": "to",
          "type": "address"
        },
        {
          "internalType": "uint256",
          "name": "tokenId",
          "type": "uint256"
        }
      ],
      "name": "approve",
      "outputs": [],
      "stateMutability": "nonpayable",
      "type": "function"
    },
    {
      "inputs": [
        {
          "internalType": "address",
          "name": "owner",
          "type": "address"
        }
      ],
      "name": "balanceOf",
      "outputs": [
        {
          "internalType": "uint256",
          "name": "",
          "type": "uint256"
        }
      ],
      "stateMutability": "view",
      "type": "function"
    },
    {
      "inputs": [
        {
          "internalType": "uint256",
          "name": "",
          "type": "uint256"
        }
      ],
      "name": "birthBlockOf",
      "outputs": [
        {
          "internalType": "uint256",
          "name": "",
          "type": "uint256"
        }
      ],
      "stateMutability": "view",
      "type": "function"
    },
    {
      "inputs": [
        {
          "internalType": "uint256",
          "name": "",
          "type": "uint256"
        }
      ],
      "name": "creatorOf",
      "outputs": [
        {
          "internalType": "address",
          "name": "",
          "type": "address"
        }
      ],
      "stateMutability": "view",
      "type": "function"
    },
    {
      "inputs": [
        {
          "internalType": "uint256",
          "name": "tokenId",
          "type": "uint256"
        }
      ],
      "name": "currentMilestone",
      "outputs": [
        {
          "internalType": "string",
          "name": "name",
          "type": "string"
        },
        {
          "internalType": "string",
          "name": "ability",
          "type": "string"
        }
      ],
      "stateMutability": "view",
      "type": "function"
    },
    {
      "inputs": [
        {
          "internalType": "uint256",
          "name": "",
          "type": "uint256"
        }
      ],
      "name": "downvotesOf",
      "outputs": [
        {
          "internalType": "uint256",
          "name": "",
          "type": "uint256"
        }
      ],
      "stateMutability": "view",
      "type": "function"
    },
    {
      "inputs": [
        {
          "internalType": "uint256",
          "name": "tokenId",
          "type": "uint256"
        }
      ],
      "name": "getAgentData",
      "outputs": [
        {
          "internalType": "address",
          "name": "creator",
          "type": "address"
        },
        {
          "internalType": "address",
          "name": "ownerAddr",
          "type": "address"
        },
        {
          "internalType": "string",
          "name": "tokenURI_",
          "type": "string"
        },
        {
          "internalType": "bytes32",
          "name": "personalityHash",
          "type": "bytes32"
        },
        {
          "internalType": "uint256",
          "name": "summonCount",
          "type": "uint256"
        },
        {
          "internalType": "uint256",
          "name": "level",
          "type": "uint256"
        },
        {
          "internalType": "string",
          "name": "milestoneName",
          "type": "string"
        },
        {
          "internalType": "string",
          "name": "milestoneAbility",
          "type": "string"
        },
        {
          "internalType": "int256",
          "name": "score",
          "type": "int256"
        },
        {
          "internalType": "uint8",
          "name": "rarity",
          "type": "uint8"
        },
        {
          "internalType": "uint8",
          "name": "mood",
          "type": "uint8"
        },
        {
          "internalType": "uint256",
          "name": "birthBlock",
          "type": "uint256"
        }
      ],
      "stateMutability": "view",
      "type": "function"
    },
    {
      "inputs": [
        {
          "internalType": "uint256",
          "name": "tokenId",
          "type": "uint256"
        }
      ],
      "name": "getApproved",
      "outputs": [
        {
          "internalType": "address",
          "name": "",
          "type": "address"
        }
      ],
      "stateMutability": "view",
      "type": "function"
    },
    {
      "inputs": [],
      "name": "getMilestones",
      "outputs": [
        {
          "internalType": "uint256[5]",
          "name": "chatsRequired",
          "type": "uint256[5]"
        },
        {
          "internalType": "string[5]",
          "name": "names",
          "type": "string[5]"
        },
        {
          "internalType": "string[5]",
          "name": "abilities",
          "type": "string[5]"
        }
      ],
      "stateMutability": "pure",
      "type": "function"
    },
    {
      "inputs": [
        {
          "internalType": "address",
          "name": "owner",
          "type": "address"
        },
        {
          "internalType": "address",
          "name": "operator",
          "type": "address"
        }
      ],
      "name": "isApprovedForAll",
      "outputs": [
        {
          "internalType": "bool",
          "name": "",
          "type": "bool"
        }
      ],
      "stateMutability": "view",
      "type": "function"
    },
    {
      "inputs": [
        {
          "internalType": "uint256",
          "name": "",
          "type": "uint256"
        }
      ],
      "name": "lastMoodChangeOf",
      "outputs": [
        {
          "internalType": "uint256",
          "name": "",
          "type": "uint256"
        }
      ],
      "stateMutability": "view",
      "type": "function"
    },
    {
      "inputs": [
        {
          "internalType": "uint256",
          "name": "",
          "type": "uint256"
        }
      ],
      "name": "lastSummonBlockOf",
      "outputs": [
        {
          "internalType": "uint256",
          "name": "",
          "type": "uint256"
        }
      ],
      "stateMutability": "view",
      "type": "function"
    },
    {
      "inputs": [
        {
          "internalType": "uint256",
          "name": "",
          "type": "uint256"
        }
      ],
      "name": "levelOf",
      "outputs": [
        {
          "internalType": "uint256",
          "name": "",
          "type": "uint256"
        }
      ],
      "stateMutability": "view",
      "type": "function"
    },
    {
      "inputs": [
        {
          "internalType": "string",
          "name": "tokenURI_",
          "type": "string"
        },
        {
          "internalType": "bytes32",
          "name": "personalityHash",
          "type": "bytes32"
        }
      ],
      "name": "mint",
      "outputs": [
        {
          "internalType": "uint256",
          "name": "",
          "type": "uint256"
        }
      ],
      "stateMutability": "payable",
      "type": "function"
    },
    {
      "inputs": [
        {
          "internalType": "uint256",
          "name": "",
          "type": "uint256"
        }
      ],
      "name": "moodOf",
      "outputs": [
        {
          "internalType": "uint8",
          "name": "",
          "type": "uint8"
        }
      ],
      "stateMutability": "view",
      "type": "function"
    },
    {
      "inputs": [],
      "name": "name",
      "outputs": [
        {
          "internalType": "string",
          "name": "",
          "type": "string"
        }
      ],
      "stateMutability": "view",
      "type": "function"
    },
    {
      "inputs": [],
      "name": "owner",
      "outputs": [
        {
          "internalType": "address",
          "name": "",
          "type": "address"
        }
      ],
      "stateMutability": "view",
      "type": "function"
    },
    {
      "inputs": [
        {
          "internalType": "uint256",
          "name": "tokenId",
          "type": "uint256"
        }
      ],
      "name": "ownerOf",
      "outputs": [
        {
          "internalType": "address",
          "name": "",
          "type": "address"
        }
      ],
      "stateMutability": "view",
      "type": "function"
    },
    {
      "inputs": [
        {
          "internalType": "uint256",
          "name": "",
          "type": "uint256"
        }
      ],
      "name": "personalityHashOf",
      "outputs": [
        {
          "internalType": "bytes32",
          "name": "",
          "type": "bytes32"
        }
      ],
      "stateMutability": "view",
      "type": "function"
    },
    {
      "inputs": [
        {
          "internalType": "uint256",
          "name": "tokenId",
          "type": "uint256"
        }
      ],
      "name": "rarityTier",
      "outputs": [
        {
          "internalType": "uint8",
          "name": "",
          "type": "uint8"
        }
      ],
      "stateMutability": "view",
      "type": "function"
    },
    {
      "inputs": [
        {
          "internalType": "uint256",
          "name": "tokenId",
          "type": "uint256"
        }
      ],
      "name": "recordSummon",
      "outputs": [],
      "stateMutability": "nonpayable",
      "type": "function"
    },
    {
      "inputs": [],
      "name": "renounceOwnership",
      "outputs": [],
      "stateMutability": "nonpayable",
      "type": "function"
    },
    {
      "inputs": [
        {
          "internalType": "address",
          "name": "from",
          "type": "address"
        },
        {
          "internalType": "address",
          "name": "to",
          "type": "address"
        },
        {
          "internalType": "uint256",
          "name": "tokenId",
          "type": "uint256"
        }
      ],
      "name": "safeTransferFrom",
      "outputs": [],
      "stateMutability": "nonpayable",
      "type": "function"
    },
    {
      "inputs": [
        {
          "internalType": "address",
          "name": "from",
          "type": "address"
        },
        {
          "internalType": "address",
          "name": "to",
          "type": "address"
        },
        {
          "internalType": "uint256",
          "name": "tokenId",
          "type": "uint256"
        },
        {
          "internalType": "bytes",
          "name": "data",
          "type": "bytes"
        }
      ],
      "name": "safeTransferFrom",
      "outputs": [],
      "stateMutability": "nonpayable",
      "type": "function"
    },
    {
      "inputs": [
        {
          "internalType": "uint256",
          "name": "tokenId",
          "type": "uint256"
        }
      ],
      "name": "scoreOf",
      "outputs": [
        {
          "internalType": "int256",
          "name": "",
          "type": "int256"
        }
      ],
      "stateMutability": "view",
      "type": "function"
    },
    {
      "inputs": [
        {
          "internalType": "address",
          "name": "operator",
          "type": "address"
        },
        {
          "internalType": "bool",
          "name": "approved",
          "type": "bool"
        }
      ],
      "name": "setApprovalForAll",
      "outputs": [],
      "stateMutability": "nonpayable",
      "type": "function"
    },
    {
      "inputs": [
        {
          "internalType": "uint256",
          "name": "",
          "type": "uint256"
        }
      ],
      "name": "summonCountOf",
      "outputs": [
        {
          "internalType": "uint256",
          "name": "",
          "type": "uint256"
        }
      ],
      "stateMutability": "view",
      "type": "function"
    },
    {
      "inputs": [
        {
          "internalType": "bytes4",
          "name": "interfaceId",
          "type": "bytes4"
        }
      ],
      "name": "supportsInterface",
      "outputs": [
        {
          "internalType": "bool",
          "name": "",
          "type": "bool"
        }
      ],
      "stateMutability": "view",
      "type": "function"
    },
    {
      "inputs": [],
      "name": "symbol",
      "outputs": [
        {
          "internalType": "string",
          "name": "",
          "type": "string"
        }
      ],
      "stateMutability": "view",
      "type": "function"
    },
    {
      "inputs": [
        {
          "internalType": "uint256",
          "name": "tokenId",
          "type": "uint256"
        }
      ],
      "name": "tokenURI",
      "outputs": [
        {
          "internalType": "string",
          "name": "",
          "type": "string"
        }
      ],
      "stateMutability": "view",
      "type": "function"
    },
    {
      "inputs": [
        {
          "internalType": "address",
          "name": "ownerAddr",
          "type": "address"
        }
      ],
      "name": "tokensOfOwner",
      "outputs": [
        {
          "internalType": "uint256[]",
          "name": "",
          "type": "uint256[]"
        }
      ],
      "stateMutability": "view",
      "type": "function"
    },
    {
      "inputs": [],
      "name": "totalDownvotes",
      "outputs": [
        {
          "internalType": "uint256",
          "name": "",
          "type": "uint256"
        }
      ],
      "stateMutability": "view",
      "type": "function"
    },
    {
      "inputs": [],
      "name": "totalMinted",
      "outputs": [
        {
          "internalType": "uint256",
          "name": "",
          "type": "uint256"
        }
      ],
      "stateMutability": "view",
      "type": "function"
    },
    {
      "inputs": [],
      "name": "totalSummons",
      "outputs": [
        {
          "internalType": "uint256",
          "name": "",
          "type": "uint256"
        }
      ],
      "stateMutability": "view",
      "type": "function"
    },
    {
      "inputs": [],
      "name": "totalUpvotes",
      "outputs": [
        {
          "internalType": "uint256",
          "name": "",
          "type": "uint256"
        }
      ],
      "stateMutability": "view",
      "type": "function"
    },
    {
      "inputs": [
        {
          "internalType": "address",
          "name": "from",
          "type": "address"
        },
        {
          "internalType": "address",
          "name": "to",
          "type": "address"
        },
        {
          "internalType": "uint256",
          "name": "tokenId",
          "type": "uint256"
        }
      ],
      "name": "transferFrom",
      "outputs": [],
      "stateMutability": "nonpayable",
      "type": "function"
    },
    {
      "inputs": [
        {
          "internalType": "address",
          "name": "newOwner",
          "type": "address"
        }
      ],
      "name": "transferOwnership",
      "outputs": [],
      "stateMutability": "nonpayable",
      "type": "function"
    },
    {
      "inputs": [
        {
          "internalType": "uint256",
          "name": "",
          "type": "uint256"
        }
      ],
      "name": "upvotesOf",
      "outputs": [
        {
          "internalType": "uint256",
          "name": "",
          "type": "uint256"
        }
      ],
      "stateMutability": "view",
      "type": "function"
    },
    {
      "inputs": [
        {
          "internalType": "uint256",
          "name": "tokenId",
          "type": "uint256"
        },
        {
          "internalType": "bool",
          "name": "positive",
          "type": "bool"
        }
      ],
      "name": "vote",
      "outputs": [],
      "stateMutability": "nonpayable",
      "type": "function"
    },
    {
      "inputs": [],
      "name": "withdraw",
      "outputs": [],
      "stateMutability": "nonpayable",
      "type": "function"
    },
    {
      "stateMutability": "payable",
      "type": "receive"
    }
  ],
  "bytecode": "0x6080346200034f576001600160401b0390604090808201838111828210176200026d578252600e81526020926d1059d95b9d135a5b9d081a53919560921b84830152825193838501858110838211176200026d57845260098552681051d153951352539560ba1b818601528251908282116200026d575f54916001948584811c9416801562000344575b838510146200024e578190601f94858111620002f1575b5083908583116001146200028d575f9262000281575b50505f19600383901b1c191690851b175f555b85519283116200026d5783548481811c9116801562000262575b828210146200024e5782811162000206575b5080918311600114620001a15750819293945f9262000195575b50505f19600383901b1c191690821b1781555b33156200017e5760078054336001600160a01b0319821681179092559251926001600160a01b03167f8be0079c531659141344cd1fd0a4f28419497f9722a3daafe3b4186f6b6457e05f80a360085561214d9081620003548239f35b8151631e4fbdf760e01b81525f6004820152602490fd5b015190505f806200010f565b90601f19831695845f52825f20925f905b888210620001ee5750508385969710620001d5575b505050811b01815562000122565b01515f1960f88460031b161c191690555f8080620001c7565b808785968294968601518155019501930190620001b2565b845f52815f208380860160051c82019284871062000244575b0160051c019085905b82811062000238575050620000f5565b5f815501859062000228565b925081926200021f565b634e487b7160e01b5f52602260045260245ffd5b90607f1690620000e3565b634e487b7160e01b5f52604160045260245ffd5b015190505f80620000b6565b90879350601f198316915f8052855f20925f5b87828210620002da5750508411620002c1575b505050811b015f55620000c9565b01515f1960f88460031b161c191690555f8080620002b3565b8385015186558b97909501949384019301620002a0565b9091505f8052835f208580850160051c8201928686106200033a575b918991869594930160051c01915b8281106200032b575050620000a0565b5f81558594508991016200031b565b925081926200030d565b93607f169362000089565b5f80fdfe6080604090808252600480361015610021575b505050361561001f575f80fd5b005b5f3560e01c91826301ffc9a7146115ca5750816306fdde031461151d57816307b5192d14611502578163081812fc146114ca578163095ea7b3146113ef57816311cd07f4146113c85781631a6549d2146113a15781632030a82214611383578163228856851461124957816323b872dd1461123257816328bcd2481461120b5781632a17d4cd146111ed5781633ccfd60b1461112957816342842e0e1461110157816348ce12c5146110da57816353442af4146110bf578163589a1743146110905781636010d44c14611069578163629e4ed014610f155781636352211e14610ee65781636793c8e114610e675781636d5e303214610e4057816370a0823114610e1b578163715018a614610dc0578163752821e914610d9b578163774d138d14610d815781638462151c14610c785781638da5cb5b14610c505781638efa48e914610c2857816395d89b4114610b45578163a22cb46514610a8f578163a2309ff814610a71578163a4296fe414610a47578163a959d09814610a29578163aa05a46014610a02578163af87e086146108c8578163b88d4fde14610869578163c002d23d14610848578163c14cb7b51461082d578163c87b56dd146107f7578163c9d27afe146106ea578163dac43ec8146106c3578163e205918d1461031f578163e985e9c5146102d1578163f2fde38b14610247575063fa07e35714610229578080610012565b34610243575f366003190112610243576020905160288152f35b5f80fd5b90503461024357602036600319011261024357610262611694565b9061026b61209d565b6001600160a01b039182169283156102bb575050600754826001600160601b0360a01b821617600755167f8be0079c531659141344cd1fd0a4f28419497f9722a3daafe3b4186f6b6457e05f80a3005b905f6024925191631e4fbdf760e01b8352820152fd5b82346102435780600319360112610243576020906102ed611694565b6102f56116aa565b9060018060a01b038091165f5260058452825f2091165f52825260ff815f20541690519015158152f35b82806003193601126102435767ffffffffffffffff90823582811161024357366023820112156102435761035d6024913690838188013591016117e7565b9080359066038d7ea4c68000341061067657811561062a5760085494610382866118a1565b600855331561061657855f526020966002885260018060a01b03865f2054169182151593846105e5575b335f5260038a52875f2094600195868154019055895f5260028b5289895f20956001600160601b0360a01b96338882541617905533907fddf252ad1be2c89b69c2b068fc378daa952ba7f163c4a11628f55a4df523b3ef5f80a46105d257885f5260068a52875f209287519283116105c157505061042a825461181d565b601f811161057b575b508089601f821160011461051e575f91610513575b505f19600383901b1c191690841b1790555b7ff8e1a15aba9398e019f0b49df1a4fde98ee17ae345cb5f6b5e2c27f5033e8ce7878651888152a1855f52600d8752845f20903390825416179055600e865281845f20556013865243845f205560158652835f2060ff19815416905560108652835f20556104c96009546118a1565b6009556104de8351928484528484019061166f565b9085830152837f1dde4bd0563b4bc3d964d7e1ddf8aafd123739f03c5b18e979378fc30f5f970733938033940390a451908152f35b90508601518a610448565b859250601f19821690845f528b5f20915f5b8d828210610565575050831161054d575b5050811b01905561045a565b8801515f1960f88460031b161c191690558a80610541565b838c015185558996909401939283019201610530565b825f52895f20601f830160051c8101918b84106105b7575b601f0160051c019085905b8281106105ac575050610433565b5f815501859061059e565b9091508190610593565b604190634e487b7160e01b5f52525ffd5b87516339e3563760e11b81525f81850152fd5b5f89815260046020526040812080546001600160a01b031916905584815260038b5288902080545f190190556103ac565b508351633250574960e11b81525f81880152fd5b856021608492602087519362461bcd60e51b85528401528201527f4167656e744d696e743a20656d70747920706572736f6e616c697479206861736044820152600d60fb1b6064820152fd5b856022608492602087519362461bcd60e51b85528401528201527f4167656e744d696e743a20696e73756666696369656e74206d696e7420707269604482015261636560f01b6064820152fd5b823461024357602036600319011261024357602091355f52600e8252805f20549051908152f35b82346102435780600319360112610243578135610705611732565b91815f52600260205261072460018060a01b03825f2054161515611855565b82156107a557815f526011602052805f2080549060018201809211610792577fed4e3dde46d3d482f207fe9ad444049eb76a475d70d2db28d718f57601ff0d3e9394955055610774600b546118a1565b600b555b61078183611c9a565b8151941515855260208501523393a3005b601186634e487b7160e01b5f525260245ffd5b815f526012602052805f2080549060018201809211610792577fed4e3dde46d3d482f207fe9ad444049eb76a475d70d2db28d718f57601ff0d3e93949550556107ef600c546118a1565b600c55610778565b8234610243576020366003190112610243576108166108299235611e59565b905191829160208352602083019061166f565b0390f35b8234610243575f3660031901126102435760209051600f8152f35b8234610243575f366003190112610243576020905166038d7ea4c680008152f35b3461024357608036600319011261024357610882611694565b61088a6116aa565b9060643567ffffffffffffffff811161024357366023820112156102435761001f938160246108be933693013591016117e7565b9160443591611d3b565b905034610243576020908160031936011261024357355f81815260028352839020546001600160a01b0393906109019085161515611855565b815f52600d835283815f20541661091783611fa2565b9261092181611e59565b815f52600e8652835f2054600f8752845f20549060108852855f2054600f8952865f205461094e9061204f565b92855f52600f8a52875f2054610963906120c9565b9461096d87611c9a565b9961097788611ce2565b975f5260158c52895f205460ff169860138d528a5f20549a80519e8f9e8f916101809586958452169101528d01528b016109b09161166f565b9260608b015260808a015260a089015287810360c08901526109d19161166f565b86810360e08801526109e29161166f565b9361010086015260ff166101208501526101408401526101608301520390f35b823461024357602036600319011261024357602091355f52600f8252805f20549051908152f35b8234610243575f36600319011261024357602090600c549051908152f35b823461024357602036600319011261024357602091355f526015825260ff815f2054169051908152f35b8234610243575f366003190112610243576020906009549051908152f35b8234610243578060031936011261024357610aa8611694565b90610ab1611732565b913315610b2f576001600160a01b0316928315610b1a5750335f526005602052805f20835f52602052805f209115159160ff1981541660ff8416179055519081527f17307eab39ab6107e8899845ad3d59bd9653f200f220920489ca2b5937696c3160203392a3005b836024925191630b61174360e31b8352820152fd5b815163a9fbf51f60e01b81525f81860152602490fd5b8234610243575f366003190112610243578051905f908260019260015493610b6c8561181d565b90818452602095866001821691825f14610c06575050600114610bab575b50506108299291610b9c9103856117a9565b5192828493845283019061166f565b9085925060015f527fb10e2d527612073b26eecdfd717e6a320cf44b4afac2b0732d9fcbe2b7fa0cf6915f925b828410610bee5750505082010181610b9c610b8a565b8054848a018601528895508794909301928101610bd8565b60ff19168682015292151560051b85019092019250839150610b9c9050610b8a565b82346102435760203660031901126102435760ff610c4860209335611ce2565b915191168152f35b8234610243575f3660031901126102435760075490516001600160a01b039091168152602090f35b823461024357602091826003193601126102435791610c95611694565b90610c9f82611c64565b610cc0610cab82611cca565b91610cb8865193846117a9565b808352611cca565b8183019590601f19013687376008546001945f906001600160a01b0390811690875b848110610d23575050505050508351938285019183865251809252840194915f5b828110610d105785870386f35b8351875295810195928101928401610d03565b97888383610d35849e9c9b9a9b611fa2565b1614610d48575b01999799969596610ce2565b9050610d53846118a1565b938851811015610d6e579080888d9360051b8b010152610d3c565b603287634e487b7160e01b5f525260245ffd5b8234610243575f36600319011261024357602090515f8152f35b823461024357602036600319011261024357610db960209235611c9a565b9051908152f35b34610243575f36600319011261024357610dd861209d565b600780546001600160a01b031981169091555f906001600160a01b03167f8be0079c531659141344cd1fd0a4f28419497f9722a3daafe3b4186f6b6457e08280a3005b823461024357602036600319011261024357602090610db9610e3b611694565b611c64565b823461024357602036600319011261024357602091355f5260108252805f20549051908152f35b905034610243576020366003190112610243573590815f526002602052610e9a60018060a01b03825f2054161515611855565b815f52600f602052610eae815f205461204f565b915f52600f602052610829610ec5825f20546120c9565b610ed8835194848695865285019061166f565b90838203602085015261166f565b823461024357602036600319011261024357610f0460209235611fa2565b90516001600160a01b039091168152f35b8234610243575f3660031901126102435760a08151610f3381611771565b369037610f3e611a88565b610f46611a88565b9180519360a085019085821067ffffffffffffffff831117611056575081939291525f8452600560209360056020870152600f818701526028606087015260646080870152610f93611ab2565b8352610f9d611ad6565b6020840152610faa611af9565b81840152610fb6611b19565b6060840152610fc3611b3c565b6080840152610fd0611b5e565b8452610fda611b88565b6020850152610fe7611bb9565b81850152610ff3611bf2565b6060850152611000611c2b565b608085015251948594905f90865b84831061103e578780610829896110308a60e060a086015260e08501906116f5565b9083820360c08501526116f5565b8151815288975060019092019190830190830161100e565b604190634e487b7160e01b5f525260245ffd5b823461024357602036600319011261024357602091355f5260138252805f20549051908152f35b823461024357602036600319011261024357602091355f52600d825260018060a01b03815f2054169051908152f35b8234610243575f366003190112610243576020905160058152f35b823461024357602036600319011261024357602091355f5260128252805f20549051908152f35b82346102435761001f90611114366116c0565b9192519261112184611741565b5f8452611d3b565b905034610243575f3660031901126102435761114361209d565b4780156111b2576007545f918291829182916001600160a01b03165af1611168611a59565b501561117057005b6020606492519162461bcd60e51b8352820152601a60248201527f4167656e744d696e743a207769746864726177206661696c65640000000000006044820152fd5b506020606492519162461bcd60e51b835282015260156024820152744167656e744d696e743a206e6f2062616c616e636560581b6044820152fd5b8234610243575f36600319011261024357602090600a549051908152f35b823461024357602036600319011261024357602091355f5260118252805f20549051908152f35b346102435761001f611243366116c0565b916118c3565b82346102435760208060031936011261024357823590815f526002815261127c60018060a01b03845f2054161515611855565b815f52600f8152825f208054906001820180921161079257907f52b532bb2b66bd52a506fdee9fa51d34c9c2c9ed60e3d252cfee43755083093d929155825f526014815243845f20556112d0600a546118a1565b600a55825f52600f815260606112e8855f2054611fdc565b94845f52600f83526112fc815f205461204f565b95855f526010845280825f208054821161133f575b5050855f52600f8452815f20549382519485528401528201528061133a3395606083019061166f565b0390a3005b55857f466f154d886a5710a75b24eaf90400725d02772a6960203e4d2eee6e9ff8f3bc83518381528487820152806113798682018c61166f565b0390a28088611311565b8234610243575f36600319011261024357602090600b549051908152f35b823461024357602036600319011261024357602091355f5260148252805f20549051908152f35b823461024357602036600319011261024357602091355f5260168252805f20549051908152f35b8234610243578060031936011261024357611408611694565b9160243561141581611fa2565b331515806114b7575b80611490575b61147a576001600160a01b039485169482918691167f8c5be1e5ebec7d5bd14f71427d1e84f3dd0314c0f7b2291e5b200ac8c7c3b9255f80a45f526020525f20906001600160601b0360a01b8254161790555f80f35b835163a9fbf51f60e01b81523381850152602490fd5b5060018060a01b0381165f526005602052835f20335f5260205260ff845f20541615611424565b506001600160a01b03811633141561141e565b82346102435760203660031901126102435781602092356114ea81611fa2565b505f52825260018060a01b03815f2054169051908152f35b8234610243575f366003190112610243576020905160648152f35b8234610243575f366003190112610243578051905f90825f54926115408461181d565b808352602094600190866001821691825f14610c065750506001146115715750506108299291610b9c9103856117a9565b5f80805286935091907f290decd9548b62a8d60345a988386fc84ba6bc95484008f6362f93160ef3e5635b8284106115b25750505082010181610b9c610b8a565b8054848a01860152889550879490930192810161159c565b903461024357602036600319011261024357359063ffffffff60e01b821680920361024357602091632483248360e11b811490811561160b575b5015158152f35b6380ac58cd60e01b81149150811561163d575b811561162c575b5083611604565b6301ffc9a760e01b14905083611625565b635b5e139f60e01b8114915061161e565b5f5b83811061165f5750505f910152565b8181015183820152602001611650565b906020916116888151809281855285808601910161164e565b601f01601f1916010190565b600435906001600160a01b038216820361024357565b602435906001600160a01b038216820361024357565b6060906003190112610243576001600160a01b0390600435828116810361024357916024359081168103610243579060443590565b60a0820191805f5b6005811061170c575050505090565b909192936117228185600193038552865161166f565b94602090810194930191016116fd565b60243590811515820361024357565b6020810190811067ffffffffffffffff82111761175d57604052565b634e487b7160e01b5f52604160045260245ffd5b60a0810190811067ffffffffffffffff82111761175d57604052565b6040810190811067ffffffffffffffff82111761175d57604052565b90601f8019910116810190811067ffffffffffffffff82111761175d57604052565b67ffffffffffffffff811161175d57601f01601f191660200190565b9291926117f3826117cb565b9161180160405193846117a9565b829481845281830111610243578281602093845f960137010152565b90600182811c9216801561184b575b602083101461183757565b634e487b7160e01b5f52602260045260245ffd5b91607f169161182c565b1561185c57565b60405162461bcd60e51b815260206004820152601c60248201527f4167656e744d696e743a206e6f6e6578697374656e7420746f6b656e000000006044820152606490fd5b5f1981146118af5760010190565b634e487b7160e01b5f52601160045260245ffd5b6001600160a01b039182169290918315611a4157815f52602092600284528260409583875f20541695331515806119af575b506002908761197e575b825f5260038152885f2060018154019055835f5252865f20816001600160601b0360a01b825416179055857fddf252ad1be2c89b69c2b068fc378daa952ba7f163c4a11628f55a4df523b3ef5f80a4169283830361195d5750505050565b6064945051926364283d7b60e01b8452600484015260248301526044820152fd5b5f84815260046020526040812080546001600160a01b03191690558881526003825289902080545f190190556118ff565b9192509080611a00575b156119c7579084915f6118f5565b8685876119e4576024915190637e27328960e01b82526004820152fd5b604491519063177e802f60e01b82523360048301526024820152fd5b503386148015611a25575b806119b95750845f52600481523384885f205416146119b9565b50855f5260058152865f20335f52815260ff875f205416611a0b565b604051633250574960e11b81525f6004820152602490fd5b3d15611a83573d90611a6a826117cb565b91611a7860405193846117a9565b82523d5f602084013e565b606090565b60405190611a9582611771565b815f5b60a08110611aa4575050565b606082820152602001611a98565b60405190611abf8261178d565b6008825267496e69746961746560c01b6020830152565b60405190611ae38261178d565b6007825266437572696f757360c81b6020830152565b60405190611b068261178d565b60048252635769736560e01b6020830152565b60405190611b268261178d565b6007825266105b98da595b9d60ca1b6020830152565b60405190611b498261178d565b60068252654d797468696360d01b6020830152565b60405190611b6b8261178d565b600e82526d737065616b7320706c61696e6c7960901b6020830152565b60405190611b958261178d565b601582527461736b7320646565706572207175657374696f6e7360581b6020830152565b60405190611bc68261178d565b601a82527f6f666665727320756e657870656374656420696e7369676874730000000000006020830152565b60405190611bff8261178d565b601882527f7265666572656e63657320736861726564206d656d6f727900000000000000006020830152565b60405190611c388261178d565b601e82527f737065616b7320696e20726964646c657320616e642070726f706865637900006020830152565b6001600160a01b03168015611c82575f52600360205260405f205490565b6040516322718ad960e21b81525f6004820152602490fd5b5f52601160205260405f2054601260205260405f2054905f82820392128183128116918313901516176118af5790565b67ffffffffffffffff811161175d5760051b60200190565b5f52601060205260405f20546032811015611d35576019811015611d2f57600a811015611d29576005811015611d235760031115611d1e575f90565b600190565b50600290565b50600390565b50600490565b50600590565b91929092611d4a8185856118c3565b833b611d57575b50505050565b60209060018060a01b0380951694611d9e6040519485938493630a85bd0160e11b98898652336004870152166024850152604484015260806064840152608483019061166f565b03815f875af15f9181611e14575b50611de35782611dba611a59565b8051919082611ddc57604051633250574960e11b815260048101839052602490fd5b6020915001fd5b6001600160e01b03191603611dfc57505f808080611d51565b60249060405190633250574960e11b82526004820152fd5b9091506020813d602011611e51575b81611e30602093836117a9565b8101031261024357516001600160e01b03198116810361024357905f611dac565b3d9150611e23565b611e6281611fa2565b506040805191611e7183611741565b5f8352805f52602060068152825f20938351945f86825491611e928361181d565b9283835286830194600191886001821691825f14611f82575050600114611f45575b5050611ec2925003876117a9565b8151958615611f3b578051611efe5750505050611ee0919250611fa2565b505f8151611eed81611741565b5251611ef881611741565b5f815290565b9091929350611f2c86611f1d611f38975198899688808901910161164e565b8401915180938684019061164e565b010380845201826117a9565b90565b9550505050505090565b8792505f52815f20905f915b858310611f69575050611ec293508201015f80611eb4565b8194848483969596549201015201910189928792611f51565b9250935050611ec294915060ff19168552151560051b8201015f80611eb4565b5f818152600260205260409020546001600160a01b0316908115611fc4575090565b60249060405190637e27328960e01b82526004820152fd5b801561204957600190811c90811561204457818181018082116118af57821c905b83821061201257505081018091116118af5790565b9092508280156120305780820481018091116118af57821c90611ffd565b634e487b7160e01b5f52601260045260245ffd5b905090565b50600190565b606481101561209457602881101561208b57600f811015612082576005111561207a57611f38611ab2565b611f38611ad6565b50611f38611af9565b50611f38611b19565b50611f38611b3c565b6007546001600160a01b031633036120b157565b60405163118cdaa760e01b8152336004820152602490fd5b606481101561210e57602881101561210557600f8110156120fc57600511156120f457611f38611b5e565b611f38611b88565b50611f38611bb9565b50611f38611bf2565b50611f38611c2b56fea2646970667358221220ef4c9f95a14e00a57a1db0a72ac5ef72ce30f1d562bb8b3b5b7dc27711ffc71464736f6c63430008180033",
  "linkReferences": {},
  "deployedLinkReferences": {}
}